{
  "contractName": "AddFiveStorage",
  "abi": [
    {
      "inputs": [
        {
          "internalType": "string",
          "name": "_name",
          "type": "string"
        },
        {
          "internalType": "uint256",
          "name": "_favouriteNumber",
          "type": "uint256"
        }
      ],
      "name": "addPerson",
      "outputs": [],
      "stateMutability": "nonpayable",
      "type": "function"
    },
    {
      "inputs": [
        {
          "internalType": "uint256",
          "name": "",
          "type": "uint256"
        }
      ],
      "name": "listofPeople",
      "outputs": [
        {
          "internalType": "uint256",
          "name": "favouriteNumber",
          "type": "uint256"
        },
        {
          "internalType": "string",
          "name": "name",
          "type": "string"
        }
      ],
      "stateMutability": "view",
      "type": "function"
    },
    {
      "inputs": [
        {
          "internalType": "string",
          "name": "",
          "type": "string"
        }
      ],
      "name": "nameToFavouriteNumber",
      "outputs": [
        {
          "internalType": "uint256",
          "name": "",
          "type": "uint256"
        }
      ],
      "stateMutability": "view",
      "type": "function"
    },
    {
      "inputs": [],
      "name": "retrive",
      "outputs": [
        {
          "internalType": "uint256",
          "name": "",
          "type": "uint256"
        }
      ],
      "stateMutability": "view",
      "type": "function"
    },
    {
      "inputs": [
        {
          "internalType": "uint256",
          "name": "_favouriteNumber",
          "type": "uint256"
        }
      ],
      "name": "store",
      "outputs": [],
      "stateMutability": "nonpayable",
      "type": "function"
    }
  ],
  "bytecode": "0x608060405234801561001057600080fd5b506106e7806100206000396000f3fe608060405234801561001057600080fd5b50600436106100575760003560e01c80632e5effac1461005c5780636057361d1461008d5780636f760f41146100a9578063a6b7fc5b146100c5578063b2ac62ef146100e3575b600080fd5b610076600480360381019061007191906102aa565b610113565b604051610084929190610376565b60405180910390f35b6100a760048036038101906100a291906102aa565b6101cf565b005b6100c360048036038101906100be91906104db565b6101e5565b005b6100cd610229565b6040516100da9190610537565b60405180910390f35b6100fd60048036038101906100f89190610552565b610232565b60405161010a9190610537565b60405180910390f35b6001818154811061012357600080fd5b906000526020600020906002020160009150905080600001549080600101805461014c906105ca565b80601f0160208091040260200160405190810160405280929190818152602001828054610178906105ca565b80156101c55780601f1061019a576101008083540402835291602001916101c5565b820191906000526020600020905b8154815290600101906020018083116101a857829003601f168201915b5050505050905082565b6005816101dc919061062a565b60008190555050565b600180816001815401808255809150500390600052602060002090505080600283604051610213919061069a565b9081526020016040518091039020819055505050565b60008054905090565b6002818051602081018201805184825260208301602085012081835280955050505050506000915090505481565b6000604051905090565b600080fd5b600080fd5b6000819050919050565b61028781610274565b811461029257600080fd5b50565b6000813590506102a48161027e565b92915050565b6000602082840312156102c0576102bf61026a565b5b60006102ce84828501610295565b91505092915050565b6102e081610274565b82525050565b600081519050919050565b600082825260208201905092915050565b60005b83811015610320578082015181840152602081019050610305565b60008484015250505050565b6000601f19601f8301169050919050565b6000610348826102e6565b61035281856102f1565b9350610362818560208601610302565b61036b8161032c565b840191505092915050565b600060408201905061038b60008301856102d7565b818103602083015261039d818461033d565b90509392505050565b600080fd5b600080fd5b7f4e487b7100000000000000000000000000000000000000000000000000000000600052604160045260246000fd5b6103e88261032c565b810181811067ffffffffffffffff82111715610407576104066103b0565b5b80604052505050565b600061041a610260565b905061042682826103df565b919050565b600067ffffffffffffffff821115610446576104456103b0565b5b61044f8261032c565b9050602081019050919050565b82818337600083830152505050565b600061047e6104798461042b565b610410565b90508281526020810184848401111561049a576104996103ab565b5b6104a584828561045c565b509392505050565b600082601f8301126104c2576104c16103a6565b5b81356104d284826020860161046b565b91505092915050565b600080604083850312156104f2576104f161026a565b5b600083013567ffffffffffffffff8111156105105761050f61026f565b5b61051c858286016104ad565b925050602061052d85828601610295565b9150509250929050565b600060208201905061054c60008301846102d7565b92915050565b6000602082840312156105685761056761026a565b5b600082013567ffffffffffffffff8111156105865761058561026f565b5b610592848285016104ad565b91505092915050565b7f4e487b7100000000000000000000000000000000000000000000000000000000600052602260045260246000fd5b600060028204905060018216806105e257607f821691505b6020821081036105f5576105f461059b565b5b50919050565b7f4e487b7100000000000000000000000000000000000000000000000000000000600052601160045260246000fd5b600061063582610274565b915061064083610274565b9250828201905080821115610658576106576105fb565b5b92915050565b600081905092915050565b6000610674826102e6565b61067e818561065e565b935061068e818560208601610302565b80840191505092915050565b60006106a68284610669565b91508190509291505056fea2646970667358221220177a4b0ddde15fb11c6fc5a2cfc3ca2b12bafe55f79cde0370d44f86fc631a6164736f6c63430008120033",
  "immutableReferences": {},
  "source": "// SPDX-License-Identifier: MIT\r\npragma solidity 0.8.18;\r\n\r\nimport {SimpleStorage}from \"./SimpleStorage.sol\";\r\n\r\ncontract AddFiveStorage is SimpleStorage{ //addfivestorage inherits SimpleStorage\r\n    // funtion overrides\r\n    function store(uint256 _favouriteNumber)public override{\r\n    myFaviouriteNumber = _favouriteNumber + 5;\r\n    }\r\n}\r\n",
  "sourcePath": "D:\\CODING\\Devlopment\\web3\\Solidity_Basics\\FirstSmartContract\\contracts\\AddFive.sol",
  "compiler": {
    "name": "solc",
    "version": "0.8.18+commit.87f61d96.Emscripten.clang"
  },
  "schemaVersion": "3.4.16",
  "updatedAt": "2025-07-07T00:52:36.505Z",
  "devdoc": {
    "kind": "dev",
    "methods": {},
    "version": 1
  },
  "userdoc": {
    "kind": "user",
    "methods": {},
    "version": 1
  }
}