{
  "contractName": "StorageFactory",
  "abi": [
    {
      "inputs": [
        {
          "internalType": "uint256",
          "name": "",
          "type": "uint256"
        }
      ],
      "name": "listOfSimpleStorage",
      "outputs": [
        {
          "internalType": "contract SimpleStorage",
          "name": "",
          "type": "address"
        }
      ],
      "stateMutability": "view",
      "type": "function"
    },
    {
      "inputs": [],
      "name": "createSimpleStorageContract",
      "outputs": [],
      "stateMutability": "nonpayable",
      "type": "function"
    },
    {
      "inputs": [
        {
          "internalType": "uint256",
          "name": "_simpleStorageIndex",
          "type": "uint256"
        },
        {
          "internalType": "uint256",
          "name": "_newSimpleStorageNumber",
          "type": "uint256"
        }
      ],
      "name": "sfStore",
      "outputs": [],
      "stateMutability": "nonpayable",
      "type": "function"
    },
    {
      "inputs": [
        {
          "internalType": "uint256",
          "name": "_simpleStorageIndex",
          "type": "uint256"
        }
      ],
      "name": "sfGet",
      "outputs": [
        {
          "internalType": "uint256",
          "name": "",
          "type": "uint256"
        }
      ],
      "stateMutability": "view",
      "type": "function"
    }
  ],
  "bytecode": "0x608060405234801561001057600080fd5b50610bce806100206000396000f3fe608060405234801561001057600080fd5b506004361061004c5760003560e01c80631563700f146100515780631dda65411461006d578063a1786dbe14610077578063c5f19c20146100a7575b600080fd5b61006b6004803603810190610066919061035e565b6100d7565b005b610075610189565b005b610091600480360381019061008c919061039e565b61021c565b60405161009e919061044a565b60405180910390f35b6100c160048036038101906100bc919061039e565b61025b565b6040516100ce9190610474565b60405180910390f35b60008083815481106100ec576100eb61048f565b5b9060005260206000200160009054906101000a900473ffffffffffffffffffffffffffffffffffffffff1690508073ffffffffffffffffffffffffffffffffffffffff16636057361d836040518263ffffffff1660e01b81526004016101529190610474565b600060405180830381600087803b15801561016c57600080fd5b505af1158015610180573d6000803e3d6000fd5b50505050505050565b600060405161019790610316565b604051809103906000f0801580156101b3573d6000803e3d6000fd5b5090506000819080600181540180825580915050600190039060005260206000200160009091909190916101000a81548173ffffffffffffffffffffffffffffffffffffffff021916908373ffffffffffffffffffffffffffffffffffffffff16021790555050565b6000818154811061022c57600080fd5b906000526020600020016000915054906101000a900473ffffffffffffffffffffffffffffffffffffffff1681565b600080600083815481106102725761027161048f565b5b9060005260206000200160009054906101000a900473ffffffffffffffffffffffffffffffffffffffff1690508073ffffffffffffffffffffffffffffffffffffffff1663a6b7fc5b6040518163ffffffff1660e01b8152600401602060405180830381865afa1580156102ea573d6000803e3d6000fd5b505050506040513d601f19601f8201168201806040525081019061030e91906104d3565b915050919050565b6106988061050183390190565b600080fd5b6000819050919050565b61033b81610328565b811461034657600080fd5b50565b60008135905061035881610332565b92915050565b6000806040838503121561037557610374610323565b5b600061038385828601610349565b925050602061039485828601610349565b9150509250929050565b6000602082840312156103b4576103b3610323565b5b60006103c284828501610349565b91505092915050565b600073ffffffffffffffffffffffffffffffffffffffff82169050919050565b6000819050919050565b600061041061040b610406846103cb565b6103eb565b6103cb565b9050919050565b6000610422826103f5565b9050919050565b600061043482610417565b9050919050565b61044481610429565b82525050565b600060208201905061045f600083018461043b565b92915050565b61046e81610328565b82525050565b60006020820190506104896000830184610465565b92915050565b7f4e487b7100000000000000000000000000000000000000000000000000000000600052603260045260246000fd5b6000815190506104cd81610332565b92915050565b6000602082840312156104e9576104e8610323565b5b60006104f7848285016104be565b9150509291505056fe608060405234801561001057600080fd5b50610678806100206000396000f3fe608060405234801561001057600080fd5b50600436106100575760003560e01c80632e5effac1461005c5780636057361d1461008d5780636f760f41146100a9578063a6b7fc5b146100c5578063b2ac62ef146100e3575b600080fd5b6100766004803603810190610071919061029e565b610113565b60405161008492919061036a565b60405180910390f35b6100a760048036038101906100a2919061029e565b6101cf565b005b6100c360048036038101906100be91906104cf565b6101d9565b005b6100cd61021d565b6040516100da919061052b565b60405180910390f35b6100fd60048036038101906100f89190610546565b610226565b60405161010a919061052b565b60405180910390f35b6001818154811061012357600080fd5b906000526020600020906002020160009150905080600001549080600101805461014c906105be565b80601f0160208091040260200160405190810160405280929190818152602001828054610178906105be565b80156101c55780601f1061019a576101008083540402835291602001916101c5565b820191906000526020600020905b8154815290600101906020018083116101a857829003601f168201915b5050505050905082565b8060008190555050565b600180816001815401808255809150500390600052602060002090505080600283604051610207919061062b565b9081526020016040518091039020819055505050565b60008054905090565b6002818051602081018201805184825260208301602085012081835280955050505050506000915090505481565b6000604051905090565b600080fd5b600080fd5b6000819050919050565b61027b81610268565b811461028657600080fd5b50565b60008135905061029881610272565b92915050565b6000602082840312156102b4576102b361025e565b5b60006102c284828501610289565b91505092915050565b6102d481610268565b82525050565b600081519050919050565b600082825260208201905092915050565b60005b838110156103145780820151818401526020810190506102f9565b60008484015250505050565b6000601f19601f8301169050919050565b600061033c826102da565b61034681856102e5565b93506103568185602086016102f6565b61035f81610320565b840191505092915050565b600060408201905061037f60008301856102cb565b81810360208301526103918184610331565b90509392505050565b600080fd5b600080fd5b7f4e487b7100000000000000000000000000000000000000000000000000000000600052604160045260246000fd5b6103dc82610320565b810181811067ffffffffffffffff821117156103fb576103fa6103a4565b5b80604052505050565b600061040e610254565b905061041a82826103d3565b919050565b600067ffffffffffffffff82111561043a576104396103a4565b5b61044382610320565b9050602081019050919050565b82818337600083830152505050565b600061047261046d8461041f565b610404565b90508281526020810184848401111561048e5761048d61039f565b5b610499848285610450565b509392505050565b600082601f8301126104b6576104b561039a565b5b81356104c684826020860161045f565b91505092915050565b600080604083850312156104e6576104e561025e565b5b600083013567ffffffffffffffff81111561050457610503610263565b5b610510858286016104a1565b925050602061052185828601610289565b9150509250929050565b600060208201905061054060008301846102cb565b92915050565b60006020828403121561055c5761055b61025e565b5b600082013567ffffffffffffffff81111561057a57610579610263565b5b610586848285016104a1565b91505092915050565b7f4e487b7100000000000000000000000000000000000000000000000000000000600052602260045260246000fd5b600060028204905060018216806105d657607f821691505b6020821081036105e9576105e861058f565b5b50919050565b600081905092915050565b6000610605826102da565b61060f81856105ef565b935061061f8185602086016102f6565b80840191505092915050565b600061063782846105fa565b91508190509291505056fea2646970667358221220ed3ea7e04419e6b9b41357044bafed3c8e55141c44f3ded121eeb807847e844a64736f6c63430008120033a26469706673582212202810f1c5c07be1cad88f9a1b4cda365867d2feb7c9ea8df58e04c321ea1c137064736f6c63430008120033",
  "immutableReferences": {},
  "source": "// SPDX-License-Identifier: MIT\r\npragma solidity 0.8.18;\r\n\r\nimport {SimpleStorage} from \"./SimpleStorage.sol\";\r\n\r\ncontract StorageFactory{\r\n    SimpleStorage[] public listOfSimpleStorage;\r\n\r\n    function createSimpleStorageContract() public{\r\n        SimpleStorage newSimpleStorage = new SimpleStorage();\r\n        listOfSimpleStorage.push(newSimpleStorage);\r\n    }\r\n\r\n    function sfStore(uint256 _simpleStorageIndex, uint _newSimpleStorageNumber) public{\r\n        // to intract with contract\r\n        // address\r\n        // ABI - application binary interface\r\n\r\n        SimpleStorage mySimpleStorage = listOfSimpleStorage[_simpleStorageIndex];\r\n        mySimpleStorage.store(_newSimpleStorageNumber);\r\n    }\r\n\r\n    function sfGet(uint256 _simpleStorageIndex) public view returns(uint256){\r\n        SimpleStorage mySimpleStorage = listOfSimpleStorage[_simpleStorageIndex];\r\n        return mySimpleStorage.retrive();\r\n    }\r\n}",
  "sourcePath": "D:\\CODING\\Devlopment\\web3\\Solidity_Basics\\FirstSmartContract\\contracts\\StorageFactory.sol",
  "compiler": {
    "name": "solc",
    "version": "0.8.18+commit.87f61d96.Emscripten.clang"
  },
  "schemaVersion": "3.4.16",
  "updatedAt": "2025-07-07T00:52:36.508Z",
  "devdoc": {
    "kind": "dev",
    "methods": {},
    "version": 1
  },
  "userdoc": {
    "kind": "user",
    "methods": {},
    "version": 1
  }
}